{
    "_format": "hh-sol-artifact-1",
    "contractName": "CollectionFactory",
    "sourceName": "contracts/factory/CollectionFactory.sol",
    "abi": [
        {
            "anonymous": false,
            "inputs": [
                {
                    "indexed": true,
                    "internalType": "address",
                    "name": "creator",
                    "type": "address"
                },
                {
                    "indexed": false,
                    "internalType": "address",
                    "name": "collection",
                    "type": "address"
                },
                {
                    "indexed": false,
                    "internalType": "string",
                    "name": "collectionType",
                    "type": "string"
                }
            ],
            "name": "CollectionCreated",
            "type": "event"
        },
        {
            "inputs": [
                {
                    "internalType": "string",
                    "name": "baseURI",
                    "type": "string"
                },
                {
                    "internalType": "address",
                    "name": "royaltyReceiver",
                    "type": "address"
                },
                {
                    "internalType": "uint96",
                    "name": "royaltyFee",
                    "type": "uint96"
                }
            ],
            "name": "createERC1155Collection",
            "outputs": [
                {
                    "internalType": "address",
                    "name": "",
                    "type": "address"
                }
            ],
            "stateMutability": "nonpayable",
            "type": "function"
        },
        {
            "inputs": [
                {
                    "internalType": "string",
                    "name": "name",
                    "type": "string"
                },
                {
                    "internalType": "string",
                    "name": "symbol",
                    "type": "string"
                },
                {
                    "internalType": "address",
                    "name": "royaltyReceiver",
                    "type": "address"
                },
                {
                    "internalType": "uint96",
                    "name": "royaltyFee",
                    "type": "uint96"
                }
            ],
            "name": "createERC721Collection",
            "outputs": [
                {
                    "internalType": "address",
                    "name": "",
                    "type": "address"
                }
            ],
            "stateMutability": "nonpayable",
            "type": "function"
        }
    ],
    "bytecode": "0x608060405234801561001057600080fd5b506139bc806100206000396000f3fe60806040523480156200001157600080fd5b50600436106200003a5760003560e01c8063136fb818146200003f578063556b51461462000072575b600080fd5b62000056620000503660046200038b565b62000089565b6040516001600160a01b03909116815260200160405180910390f35b62000056620000833660046200041b565b6200018d565b600080858585856040516200009e906200028f565b620000ad9493929190620004c9565b604051809103906000f080158015620000ca573d6000803e3d6000fd5b5060405163f2fde38b60e01b81523360048201529091506001600160a01b0382169063f2fde38b90602401600060405180830381600087803b1580156200011057600080fd5b505af115801562000125573d6000803e3d6000fd5b5050604080516001600160a01b0385168152602081018290526006818301526545524337323160d01b606082015290513393507fa9a63cb75fdf6f638d49c249df7d5b94dd8bb8ac664ca12da7339862b9dd87ae92509081900360800190a295945050505050565b600080848484604051620001a1906200029d565b620001af939291906200051d565b604051809103906000f080158015620001cc573d6000803e3d6000fd5b5060405163f2fde38b60e01b81523360048201529091506001600160a01b0382169063f2fde38b90602401600060405180830381600087803b1580156200021257600080fd5b505af115801562000227573d6000803e3d6000fd5b5050604080516001600160a01b038516815260208101829052600781830152664552433131353560c81b606082015290513393507fa9a63cb75fdf6f638d49c249df7d5b94dd8bb8ac664ca12da7339862b9dd87ae92509081900360800190a2949350505050565b611a19806200055c83390190565b611a128062001f7583390190565b634e487b7160e01b600052604160045260246000fd5b600082601f830112620002d357600080fd5b813567ffffffffffffffff80821115620002f157620002f1620002ab565b604051601f8301601f19908116603f011681019082821181831017156200031c576200031c620002ab565b816040528381528660208588010111156200033657600080fd5b836020870160208301376000602085830101528094505050505092915050565b80356001600160a01b03811681146200036e57600080fd5b919050565b80356001600160601b03811681146200036e57600080fd5b60008060008060808587031215620003a257600080fd5b843567ffffffffffffffff80821115620003bb57600080fd5b620003c988838901620002c1565b95506020870135915080821115620003e057600080fd5b50620003ef87828801620002c1565b935050620004006040860162000356565b9150620004106060860162000373565b905092959194509250565b6000806000606084860312156200043157600080fd5b833567ffffffffffffffff8111156200044957600080fd5b6200045786828701620002c1565b935050620004686020850162000356565b9150620004786040850162000373565b90509250925092565b6000815180845260005b81811015620004a9576020818501810151868301820152016200048b565b506000602082860101526020601f19601f83011685010191505092915050565b608081526000620004de608083018762000481565b8281036020840152620004f2818762000481565b6001600160a01b0395909516604084015250506001600160601b039190911660609091015292915050565b60608152600062000532606083018662000481565b6001600160a01b03949094166020830152506001600160601b039190911660409091015291905056fe60806040523480156200001157600080fd5b5060405162001a1938038062001a19833981016040819052620000349162000267565b3384846000620000458382620003a2565b506001620000548282620003a2565b5050506001600160a01b0381166200008757604051631e4fbdf760e01b8152600060048201526024015b60405180910390fd5b6200009281620000a9565b506200009f8282620000fb565b505050506200046e565b600780546001600160a01b038381166001600160a01b0319831681179093556040519116919082907f8be0079c531659141344cd1fd0a4f28419497f9722a3daafe3b4186f6b6457e090600090a35050565b6127106001600160601b0382168110156200013c57604051636f483d0960e01b81526001600160601b0383166004820152602481018290526044016200007e565b6001600160a01b0383166200016857604051635b6cc80560e11b8152600060048201526024016200007e565b50604080518082019091526001600160a01b039092168083526001600160601b039091166020909201829052600160a01b90910217600855565b634e487b7160e01b600052604160045260246000fd5b600082601f830112620001ca57600080fd5b81516001600160401b0380821115620001e757620001e7620001a2565b604051601f8301601f19908116603f01168101908282118183101715620002125762000212620001a2565b816040528381526020925086838588010111156200022f57600080fd5b600091505b8382101562000253578582018301518183018401529082019062000234565b600093810190920192909252949350505050565b600080600080608085870312156200027e57600080fd5b84516001600160401b03808211156200029657600080fd5b620002a488838901620001b8565b95506020870151915080821115620002bb57600080fd5b50620002ca87828801620001b8565b604087015190945090506001600160a01b0381168114620002ea57600080fd5b60608601519092506001600160601b03811681146200030857600080fd5b939692955090935050565b600181811c908216806200032857607f821691505b6020821081036200034957634e487b7160e01b600052602260045260246000fd5b50919050565b601f8211156200039d57600081815260208120601f850160051c81016020861015620003785750805b601f850160051c820191505b81811015620003995782815560010162000384565b5050505b505050565b81516001600160401b03811115620003be57620003be620001a2565b620003d681620003cf845462000313565b846200034f565b602080601f8311600181146200040e5760008415620003f55750858301515b600019600386901b1c1916600185901b17855562000399565b600085815260208120601f198616915b828110156200043f578886015182559484019460019091019084016200041e565b50858210156200045e5787850151600019600388901b60f8161c191681555b5050505050600190811b01905550565b61159b806200047e6000396000f3fe608060405234801561001057600080fd5b50600436106101215760003560e01c8063715018a6116100ad578063b88d4fde11610071578063b88d4fde1461026c578063c87b56dd1461027f578063d0def52114610292578063e985e9c5146102a5578063f2fde38b146102b857600080fd5b8063715018a61461022f57806375794a3c146102375780638da5cb5b1461024057806395d89b4114610251578063a22cb4651461025957600080fd5b806323b872dd116100f457806323b872dd146101a35780632a55205a146101b657806342842e0e146101e85780636352211e146101fb57806370a082311461020e57600080fd5b806301ffc9a71461012657806306fdde031461014e578063081812fc14610163578063095ea7b31461018e575b600080fd5b610139610134366004611003565b6102cb565b60405190151581526020015b60405180910390f35b6101566102dc565b6040516101459190611070565b610176610171366004611083565b61036e565b6040516001600160a01b039091168152602001610145565b6101a161019c3660046110b8565b610397565b005b6101a16101b13660046110e2565b6103a6565b6101c96101c436600461111e565b610436565b604080516001600160a01b039093168352602083019190915201610145565b6101a16101f63660046110e2565b6104bb565b610176610209366004611083565b6104db565b61022161021c366004611140565b6104e6565b604051908152602001610145565b6101a161052e565b610221600a5481565b6007546001600160a01b0316610176565b610156610542565b6101a161026736600461115b565b610551565b6101a161027a366004611223565b61055c565b61015661028d366004611083565b610574565b6102216102a036600461129f565b610685565b6101396102b3366004611301565b6106c1565b6101a16102c6366004611140565b6106ef565b60006102d68261072d565b92915050565b6060600080546102eb90611334565b80601f016020809104026020016040519081016040528092919081815260200182805461031790611334565b80156103645780601f1061033957610100808354040283529160200191610364565b820191906000526020600020905b81548152906001019060200180831161034757829003601f168201915b5050505050905090565b600061037982610738565b506000828152600460205260409020546001600160a01b03166102d6565b6103a2828233610771565b5050565b6001600160a01b0382166103d557604051633250574960e11b8152600060048201526024015b60405180910390fd5b60006103e283833361077e565b9050836001600160a01b0316816001600160a01b031614610430576040516364283d7b60e01b81526001600160a01b03808616600483015260248201849052821660448201526064016103cc565b50505050565b600082815260096020526040812080548291906001600160a01b03811690600160a01b90046001600160601b03168161048a5750506008546001600160a01b03811690600160a01b90046001600160601b03165b60006127106104a26001600160601b03841689611384565b6104ac919061139b565b92989297509195505050505050565b6104d68383836040518060200160405280600081525061055c565b505050565b60006102d682610738565b60006001600160a01b038216610512576040516322718ad960e21b8152600060048201526024016103cc565b506001600160a01b031660009081526003602052604090205490565b610536610877565b61054060006108a4565b565b6060600180546102eb90611334565b6103a23383836108f6565b6105678484846103a6565b6104303385858585610995565b606061057f82610738565b506000828152600660205260408120805461059990611334565b80601f01602080910402602001604051908101604052809291908181526020018280546105c590611334565b80156106125780601f106105e757610100808354040283529160200191610612565b820191906000526020600020905b8154815290600101906020018083116105f557829003601f168201915b50505050509050600061063060408051602081019091526000815290565b90508051600003610642575092915050565b81511561067457808260405160200161065c9291906113bd565b60405160208183030381529060405292505050919050565b61067d84610ac0565b949350505050565b600061068f610877565b600a8054600091826106a0836113ec565b9190505590506106b08482610b34565b6106ba8184610b4e565b9392505050565b6001600160a01b03918216600090815260056020908152604080832093909416825291909152205460ff1690565b6106f7610877565b6001600160a01b03811661072157604051631e4fbdf760e01b8152600060048201526024016103cc565b61072a816108a4565b50565b60006102d682610b9e565b6000818152600260205260408120546001600160a01b0316806102d657604051637e27328960e01b8152600481018490526024016103cc565b6104d68383836001610bc3565b6000828152600260205260408120546001600160a01b03908116908316156107ab576107ab818486610cc9565b6001600160a01b038116156107e9576107c8600085600080610bc3565b6001600160a01b038116600090815260036020526040902080546000190190555b6001600160a01b03851615610818576001600160a01b0385166000908152600360205260409020805460010190555b60008481526002602052604080822080546001600160a01b0319166001600160a01b0389811691821790925591518793918516917fddf252ad1be2c89b69c2b068fc378daa952ba7f163c4a11628f55a4df523b3ef91a4949350505050565b6007546001600160a01b031633146105405760405163118cdaa760e01b81523360048201526024016103cc565b600780546001600160a01b038381166001600160a01b0319831681179093556040519116919082907f8be0079c531659141344cd1fd0a4f28419497f9722a3daafe3b4186f6b6457e090600090a35050565b6001600160a01b03821661092857604051630b61174360e31b81526001600160a01b03831660048201526024016103cc565b6001600160a01b03838116600081815260056020908152604080832094871680845294825291829020805460ff191686151590811790915591519182527f17307eab39ab6107e8899845ad3d59bd9653f200f220920489ca2b5937696c31910160405180910390a3505050565b6001600160a01b0383163b15610ab957604051630a85bd0160e11b81526001600160a01b0384169063150b7a02906109d7908890889087908790600401611405565b6020604051808303816000875af1925050508015610a12575060408051601f3d908101601f19168201909252610a0f91810190611442565b60015b610a7b573d808015610a40576040519150601f19603f3d011682016040523d82523d6000602084013e610a45565b606091505b508051600003610a7357604051633250574960e11b81526001600160a01b03851660048201526024016103cc565b805160208201fd5b6001600160e01b03198116630a85bd0160e11b14610ab757604051633250574960e11b81526001600160a01b03851660048201526024016103cc565b505b5050505050565b6060610acb82610738565b506000610ae360408051602081019091526000815290565b90506000815111610b0357604051806020016040528060008152506106ba565b80610b0d84610d2d565b604051602001610b1e9291906113bd565b6040516020818303038152906040529392505050565b6103a2828260405180602001604052806000815250610dc0565b6000828152600660205260409020610b6682826114a5565b506040518281527ff8e1a15aba9398e019f0b49df1a4fde98ee17ae345cb5f6b5e2c27f5033e8ce79060200160405180910390a15050565b60006001600160e01b0319821663152a902d60e11b14806102d657506102d682610dd8565b8080610bd757506001600160a01b03821615155b15610c99576000610be784610738565b90506001600160a01b03831615801590610c135750826001600160a01b0316816001600160a01b031614155b8015610c265750610c2481846106c1565b155b15610c4f5760405163a9fbf51f60e01b81526001600160a01b03841660048201526024016103cc565b8115610c975783856001600160a01b0316826001600160a01b03167f8c5be1e5ebec7d5bd14f71427d1e84f3dd0314c0f7b2291e5b200ac8c7c3b92560405160405180910390a45b505b5050600090815260046020526040902080546001600160a01b0319166001600160a01b0392909216919091179055565b610cd4838383610dfd565b6104d6576001600160a01b038316610d0257604051637e27328960e01b8152600481018290526024016103cc565b60405163177e802f60e01b81526001600160a01b0383166004820152602481018290526044016103cc565b60606000610d3a83610e60565b600101905060008167ffffffffffffffff811115610d5a57610d5a611197565b6040519080825280601f01601f191660200182016040528015610d84576020820181803683370190505b5090508181016020015b600019016f181899199a1a9b1b9c1cb0b131b232b360811b600a86061a8153600a8504945084610d8e57509392505050565b610dca8383610f38565b6104d6336000858585610995565b60006001600160e01b03198216632483248360e11b14806102d657506102d682610f9d565b60006001600160a01b0383161580159061067d5750826001600160a01b0316846001600160a01b03161480610e375750610e3784846106c1565b8061067d5750506000908152600460205260409020546001600160a01b03908116911614919050565b60008072184f03e93ff9f4daa797ed6e38ed64bf6a1f0160401b8310610e9f5772184f03e93ff9f4daa797ed6e38ed64bf6a1f0160401b830492506040015b6d04ee2d6d415b85acef81000000008310610ecb576d04ee2d6d415b85acef8100000000830492506020015b662386f26fc100008310610ee957662386f26fc10000830492506010015b6305f5e1008310610f01576305f5e100830492506008015b6127108310610f1557612710830492506004015b60648310610f27576064830492506002015b600a83106102d65760010192915050565b6001600160a01b038216610f6257604051633250574960e11b8152600060048201526024016103cc565b6000610f708383600061077e565b90506001600160a01b038116156104d6576040516339e3563760e11b8152600060048201526024016103cc565b60006001600160e01b031982166380ac58cd60e01b1480610fce57506001600160e01b03198216635b5e139f60e01b145b806102d657506301ffc9a760e01b6001600160e01b03198316146102d6565b6001600160e01b03198116811461072a57600080fd5b60006020828403121561101557600080fd5b81356106ba81610fed565b60005b8381101561103b578181015183820152602001611023565b50506000910152565b6000815180845261105c816020860160208601611020565b601f01601f19169290920160200192915050565b6020815260006106ba6020830184611044565b60006020828403121561109557600080fd5b5035919050565b80356001600160a01b03811681146110b357600080fd5b919050565b600080604083850312156110cb57600080fd5b6110d48361109c565b946020939093013593505050565b6000806000606084860312156110f757600080fd5b6111008461109c565b925061110e6020850161109c565b9150604084013590509250925092565b6000806040838503121561113157600080fd5b50508035926020909101359150565b60006020828403121561115257600080fd5b6106ba8261109c565b6000806040838503121561116e57600080fd5b6111778361109c565b91506020830135801515811461118c57600080fd5b809150509250929050565b634e487b7160e01b600052604160045260246000fd5b600067ffffffffffffffff808411156111c8576111c8611197565b604051601f8501601f19908116603f011681019082821181831017156111f0576111f0611197565b8160405280935085815286868601111561120957600080fd5b858560208301376000602087830101525050509392505050565b6000806000806080858703121561123957600080fd5b6112428561109c565b93506112506020860161109c565b925060408501359150606085013567ffffffffffffffff81111561127357600080fd5b8501601f8101871361128457600080fd5b611293878235602084016111ad565b91505092959194509250565b600080604083850312156112b257600080fd5b6112bb8361109c565b9150602083013567ffffffffffffffff8111156112d757600080fd5b8301601f810185136112e857600080fd5b6112f7858235602084016111ad565b9150509250929050565b6000806040838503121561131457600080fd5b61131d8361109c565b915061132b6020840161109c565b90509250929050565b600181811c9082168061134857607f821691505b60208210810361136857634e487b7160e01b600052602260045260246000fd5b50919050565b634e487b7160e01b600052601160045260246000fd5b80820281158282048414176102d6576102d661136e565b6000826113b857634e487b7160e01b600052601260045260246000fd5b500490565b600083516113cf818460208801611020565b8351908301906113e3818360208801611020565b01949350505050565b6000600182016113fe576113fe61136e565b5060010190565b6001600160a01b038581168252841660208201526040810183905260806060820181905260009061143890830184611044565b9695505050505050565b60006020828403121561145457600080fd5b81516106ba81610fed565b601f8211156104d657600081815260208120601f850160051c810160208610156114865750805b601f850160051c820191505b81811015610ab757828155600101611492565b815167ffffffffffffffff8111156114bf576114bf611197565b6114d3816114cd8454611334565b8461145f565b602080601f83116001811461150857600084156114f05750858301515b600019600386901b1c1916600185901b178555610ab7565b600085815260208120601f198616915b8281101561153757888601518255948401946001909101908401611518565b50858210156115555787850151600019600388901b60f8161c191681555b5050505050600190811b0190555056fea2646970667358221220f493feb557ef4dbc5d82a1829dfc5411189b4df77fe38d4744d188812ae54ec064736f6c6343000814003360806040523480156200001157600080fd5b5060405162001a1238038062001a128339810160408190526200003491620001e9565b3383620000418162000093565b506001600160a01b0381166200007257604051631e4fbdf760e01b8152600060048201526024015b60405180910390fd5b6200007d81620000a5565b506200008a8282620000f7565b5050506200043e565b6002620000a1828262000372565b5050565b600380546001600160a01b038381166001600160a01b0319831681179093556040519116919082907f8be0079c531659141344cd1fd0a4f28419497f9722a3daafe3b4186f6b6457e090600090a35050565b6127106001600160601b0382168110156200013857604051636f483d0960e01b81526001600160601b03831660048201526024810182905260440162000069565b6001600160a01b0383166200016457604051635b6cc80560e11b81526000600482015260240162000069565b50604080518082019091526001600160a01b039092168083526001600160601b039091166020909201829052600160a01b90910217600455565b634e487b7160e01b600052604160045260246000fd5b80516001600160a01b0381168114620001cc57600080fd5b919050565b80516001600160601b0381168114620001cc57600080fd5b600080600060608486031215620001ff57600080fd5b83516001600160401b03808211156200021757600080fd5b818601915086601f8301126200022c57600080fd5b8151818111156200024157620002416200019e565b604051601f8201601f19908116603f011681019083821181831017156200026c576200026c6200019e565b816040528281526020935089848487010111156200028957600080fd5b600091505b82821015620002ad57848201840151818301850152908301906200028e565b6000848483010152809750505050620002c8818701620001b4565b93505050620002da60408501620001d1565b90509250925092565b600181811c90821680620002f857607f821691505b6020821081036200031957634e487b7160e01b600052602260045260246000fd5b50919050565b601f8211156200036d57600081815260208120601f850160051c81016020861015620003485750805b601f850160051c820191505b81811015620003695782815560010162000354565b5050505b505050565b81516001600160401b038111156200038e576200038e6200019e565b620003a6816200039f8454620002e3565b846200031f565b602080601f831160018114620003de5760008415620003c55750858301515b600019600386901b1c1916600185901b17855562000369565b600085815260208120601f198616915b828110156200040f57888601518255948401946001909101908401620003ee565b50858210156200042e5787850151600019600388901b60f8161c191681555b5050505050600190811b01905550565b6115c4806200044e6000396000f3fe608060405234801561001057600080fd5b50600436106100ff5760003560e01c8063869f759411610097578063da367f0911610066578063da367f091461025d578063e985e9c514610270578063f242432a14610283578063f2fde38b1461029657600080fd5b8063869f7594146101ef5780638da5cb5b1461020f578063a22cb4651461022a578063bd85b0391461023d57600080fd5b80632eb2c2d6116100d35780632eb2c2d61461019f578063489280a2146101b45780634e1273f4146101c7578063715018a6146101e757600080fd5b8062fdd58e1461010457806301ffc9a71461012a5780630e89341c1461014d5780632a55205a1461016d575b600080fd5b610117610112366004610ebd565b6102a9565b6040519081526020015b60405180910390f35b61013d610138366004610efd565b6102d1565b6040519015158152602001610121565b61016061015b366004610f21565b6102dc565b6040516101219190610f80565b61018061017b366004610f93565b610370565b604080516001600160a01b039093168352602083019190915201610121565b6101b26101ad3660046110fb565b6103f5565b005b6101b26101c2366004610f93565b610461565b6101da6101d53660046111a5565b6104c8565b60405161012191906112a0565b6101b261059d565b6101176101fd366004610f21565b60076020526000908152604090205481565b6003546040516001600160a01b039091168152602001610121565b6101b26102383660046112b3565b6105b1565b61011761024b366004610f21565b60066020526000908152604090205481565b6101b261026b3660046112ef565b6105c0565b61013d61027e366004611322565b610672565b6101b2610291366004611355565b6106a0565b6101b26102a43660046113ba565b6106ff565b6000818152602081815260408083206001600160a01b03861684529091529020545b92915050565b60006102cb8261073d565b6060600280546102eb906113d5565b80601f0160208091040260200160405190810160405280929190818152602001828054610317906113d5565b80156103645780601f1061033957610100808354040283529160200191610364565b820191906000526020600020905b81548152906001019060200180831161034757829003601f168201915b50505050509050919050565b600082815260056020526040812080548291906001600160a01b03811690600160a01b90046001600160601b0316816103c45750506004546001600160a01b03811690600160a01b90046001600160601b03165b60006127106103dc6001600160601b03841689611425565b6103e6919061143c565b92989297509195505050505050565b336001600160a01b038616811480159061041657506104148682610672565b155b1561044c5760405163711bec9160e11b81526001600160a01b038083166004830152871660248201526044015b60405180910390fd5b6104598686868686610748565b505050505050565b6104696107af565b600082815260076020526040902054156104b65760405162461bcd60e51b815260206004820152600e60248201526d45646974696f6e2065786973747360901b6044820152606401610443565b60009182526007602052604090912055565b606081518351146104f95781518351604051635b05999160e01b815260048101929092526024820152604401610443565b6000835167ffffffffffffffff81111561051557610515610fb5565b60405190808252806020026020018201604052801561053e578160200160208202803683370190505b50905060005b845181101561059557602080820286010151610568906020808402870101516102a9565b82828151811061057a5761057a61145e565b602090810291909101015261058e81611474565b9050610544565b509392505050565b6105a56107af565b6105af60006107dc565b565b6105bc33838361082e565b5050565b6105c86107af565b6000828152600760209081526040808320546006909252909120546105ee90839061148d565b111561062d5760405162461bcd60e51b815260206004820152600e60248201526d4578636565647320737570706c7960901b6044820152606401610443565b6000828152600660205260408120805483929061064b90849061148d565b9250508190555061066d838383604051806020016040528060008152506108c4565b505050565b6001600160a01b03918216600090815260016020908152604080832093909416825291909152205460ff1690565b336001600160a01b03861681148015906106c157506106bf8682610672565b155b156106f25760405163711bec9160e11b81526001600160a01b03808316600483015287166024820152604401610443565b6104598686868686610921565b6107076107af565b6001600160a01b03811661073157604051631e4fbdf760e01b815260006004820152602401610443565b61073a816107dc565b50565b60006102cb826109af565b6001600160a01b03841661077257604051632bfa23e760e11b815260006004820152602401610443565b6001600160a01b03851661079b57604051626a0d4560e21b815260006004820152602401610443565b6107a885858585856109d4565b5050505050565b6003546001600160a01b031633146105af5760405163118cdaa760e01b8152336004820152602401610443565b600380546001600160a01b038381166001600160a01b0319831681179093556040519116919082907f8be0079c531659141344cd1fd0a4f28419497f9722a3daafe3b4186f6b6457e090600090a35050565b6001600160a01b0382166108575760405162ced3e160e81b815260006004820152602401610443565b6001600160a01b03838116600081815260016020908152604080832094871680845294825291829020805460ff191686151590811790915591519182527f17307eab39ab6107e8899845ad3d59bd9653f200f220920489ca2b5937696c31910160405180910390a3505050565b6001600160a01b0384166108ee57604051632bfa23e760e11b815260006004820152602401610443565b604080516001808252602082018690528183019081526060820185905260808201909252906104596000878484876109d4565b6001600160a01b03841661094b57604051632bfa23e760e11b815260006004820152602401610443565b6001600160a01b03851661097457604051626a0d4560e21b815260006004820152602401610443565b604080516001808252602082018690528183019081526060820185905260808201909252906109a687878484876109d4565b50505050505050565b60006001600160e01b0319821663152a902d60e11b14806102cb57506102cb82610a27565b6109e085858585610a77565b6001600160a01b038416156107a85782513390600103610a195760208481015190840151610a12838989858589610c94565b5050610459565b610459818787878787610db8565b60006001600160e01b03198216636cdb3d1360e11b1480610a5857506001600160e01b031982166303a24d0760e21b145b806102cb57506301ffc9a760e01b6001600160e01b03198316146102cb565b8051825114610aa65781518151604051635b05999160e01b815260048101929092526024820152604401610443565b3360005b8351811015610bb5576020818102858101820151908501909101516001600160a01b03881615610b5d576000828152602081815260408083206001600160a01b038c16845290915290205481811015610b36576040516303dee4c560e01b81526001600160a01b038a166004820152602481018290526044810183905260648101849052608401610443565b6000838152602081815260408083206001600160a01b038d16845290915290209082900390555b6001600160a01b03871615610ba2576000828152602081815260408083206001600160a01b038b16845290915281208054839290610b9c90849061148d565b90915550505b505080610bae90611474565b9050610aaa565b508251600103610c365760208301516000906020840151909150856001600160a01b0316876001600160a01b0316846001600160a01b03167fc3d58168c5ae7397731d063d5bbf3d657854427343f4c083240f7aacaa2d0f628585604051610c27929190918252602082015260400190565b60405180910390a450506107a8565b836001600160a01b0316856001600160a01b0316826001600160a01b03167f4a39dc06d4c0dbc64b70af90fd698a233a518aa5d07e595d983b8c0526c8f7fb8686604051610c859291906114a0565b60405180910390a45050505050565b6001600160a01b0384163b156104595760405163f23a6e6160e01b81526001600160a01b0385169063f23a6e6190610cd890899089908890889088906004016114ce565b6020604051808303816000875af1925050508015610d13575060408051601f3d908101601f19168201909252610d1091810190611513565b60015b610d7c573d808015610d41576040519150601f19603f3d011682016040523d82523d6000602084013e610d46565b606091505b508051600003610d7457604051632bfa23e760e11b81526001600160a01b0386166004820152602401610443565b805160208201fd5b6001600160e01b0319811663f23a6e6160e01b146109a657604051632bfa23e760e11b81526001600160a01b0386166004820152602401610443565b6001600160a01b0384163b156104595760405163bc197c8160e01b81526001600160a01b0385169063bc197c8190610dfc9089908990889088908890600401611530565b6020604051808303816000875af1925050508015610e37575060408051601f3d908101601f19168201909252610e3491810190611513565b60015b610e65573d808015610d41576040519150601f19603f3d011682016040523d82523d6000602084013e610d46565b6001600160e01b0319811663bc197c8160e01b146109a657604051632bfa23e760e11b81526001600160a01b0386166004820152602401610443565b80356001600160a01b0381168114610eb857600080fd5b919050565b60008060408385031215610ed057600080fd5b610ed983610ea1565b946020939093013593505050565b6001600160e01b03198116811461073a57600080fd5b600060208284031215610f0f57600080fd5b8135610f1a81610ee7565b9392505050565b600060208284031215610f3357600080fd5b5035919050565b6000815180845260005b81811015610f6057602081850181015186830182015201610f44565b506000602082860101526020601f19601f83011685010191505092915050565b602081526000610f1a6020830184610f3a565b60008060408385031215610fa657600080fd5b50508035926020909101359150565b634e487b7160e01b600052604160045260246000fd5b604051601f8201601f1916810167ffffffffffffffff81118282101715610ff457610ff4610fb5565b604052919050565b600067ffffffffffffffff82111561101657611016610fb5565b5060051b60200190565b600082601f83011261103157600080fd5b8135602061104661104183610ffc565b610fcb565b82815260059290921b8401810191818101908684111561106557600080fd5b8286015b848110156110805780358352918301918301611069565b509695505050505050565b600082601f83011261109c57600080fd5b813567ffffffffffffffff8111156110b6576110b6610fb5565b6110c9601f8201601f1916602001610fcb565b8181528460208386010111156110de57600080fd5b816020850160208301376000918101602001919091529392505050565b600080600080600060a0868803121561111357600080fd5b61111c86610ea1565b945061112a60208701610ea1565b9350604086013567ffffffffffffffff8082111561114757600080fd5b61115389838a01611020565b9450606088013591508082111561116957600080fd5b61117589838a01611020565b9350608088013591508082111561118b57600080fd5b506111988882890161108b565b9150509295509295909350565b600080604083850312156111b857600080fd5b823567ffffffffffffffff808211156111d057600080fd5b818501915085601f8301126111e457600080fd5b813560206111f461104183610ffc565b82815260059290921b8401810191818101908984111561121357600080fd5b948201945b838610156112385761122986610ea1565b82529482019490820190611218565b9650508601359250508082111561124e57600080fd5b5061125b85828601611020565b9150509250929050565b600081518084526020808501945080840160005b8381101561129557815187529582019590820190600101611279565b509495945050505050565b602081526000610f1a6020830184611265565b600080604083850312156112c657600080fd5b6112cf83610ea1565b9150602083013580151581146112e457600080fd5b809150509250929050565b60008060006060848603121561130457600080fd5b61130d84610ea1565b95602085013595506040909401359392505050565b6000806040838503121561133557600080fd5b61133e83610ea1565b915061134c60208401610ea1565b90509250929050565b600080600080600060a0868803121561136d57600080fd5b61137686610ea1565b945061138460208701610ea1565b93506040860135925060608601359150608086013567ffffffffffffffff8111156113ae57600080fd5b6111988882890161108b565b6000602082840312156113cc57600080fd5b610f1a82610ea1565b600181811c908216806113e957607f821691505b60208210810361140957634e487b7160e01b600052602260045260246000fd5b50919050565b634e487b7160e01b600052601160045260246000fd5b80820281158282048414176102cb576102cb61140f565b60008261145957634e487b7160e01b600052601260045260246000fd5b500490565b634e487b7160e01b600052603260045260246000fd5b6000600182016114865761148661140f565b5060010190565b808201808211156102cb576102cb61140f565b6040815260006114b36040830185611265565b82810360208401526114c58185611265565b95945050505050565b6001600160a01b03868116825285166020820152604081018490526060810183905260a06080820181905260009061150890830184610f3a565b979650505050505050565b60006020828403121561152557600080fd5b8151610f1a81610ee7565b6001600160a01b0386811682528516602082015260a06040820181905260009061155c90830186611265565b828103606084015261156e8186611265565b905082810360808401526115828185610f3a565b9897505050505050505056fea2646970667358221220328d2e22e30f219558602d2ca21c75d62885d6e141cbfc18b270fa1f7a4b267c64736f6c63430008140033a2646970667358221220605f93d89149ecaa7334d418d67d164e69e7c53d022179c2cf35877ad9d10d0e64736f6c63430008140033",
    "linkReferences": {},
    "deployedLinkReferences": {}
}